{
  "_format": "hh-sol-artifact-1",
  "contractName": "LegitCred",
  "sourceName": "contracts/LegitCred.sol",
  "abi": [
    {
      "inputs": [
        {
          "internalType": "address",
          "name": "initialOwner",
          "type": "address"
        }
      ],
      "stateMutability": "nonpayable",
      "type": "constructor"
    },
    {
      "inputs": [
        {
          "internalType": "address",
          "name": "sender",
          "type": "address"
        },
        {
          "internalType": "uint256",
          "name": "tokenId",
          "type": "uint256"
        },
        {
          "internalType": "address",
          "name": "owner",
          "type": "address"
        }
      ],
      "name": "ERC721IncorrectOwner",
      "type": "error"
    },
    {
      "inputs": [
        {
          "internalType": "address",
          "name": "operator",
          "type": "address"
        },
        {
          "internalType": "uint256",
          "name": "tokenId",
          "type": "uint256"
        }
      ],
      "name": "ERC721InsufficientApproval",
      "type": "error"
    },
    {
      "inputs": [
        {
          "internalType": "address",
          "name": "approver",
          "type": "address"
        }
      ],
      "name": "ERC721InvalidApprover",
      "type": "error"
    },
    {
      "inputs": [
        {
          "internalType": "address",
          "name": "operator",
          "type": "address"
        }
      ],
      "name": "ERC721InvalidOperator",
      "type": "error"
    },
    {
      "inputs": [
        {
          "internalType": "address",
          "name": "owner",
          "type": "address"
        }
      ],
      "name": "ERC721InvalidOwner",
      "type": "error"
    },
    {
      "inputs": [
        {
          "internalType": "address",
          "name": "receiver",
          "type": "address"
        }
      ],
      "name": "ERC721InvalidReceiver",
      "type": "error"
    },
    {
      "inputs": [
        {
          "internalType": "address",
          "name": "sender",
          "type": "address"
        }
      ],
      "name": "ERC721InvalidSender",
      "type": "error"
    },
    {
      "inputs": [
        {
          "internalType": "uint256",
          "name": "tokenId",
          "type": "uint256"
        }
      ],
      "name": "ERC721NonexistentToken",
      "type": "error"
    },
    {
      "inputs": [
        {
          "internalType": "address",
          "name": "owner",
          "type": "address"
        }
      ],
      "name": "OwnableInvalidOwner",
      "type": "error"
    },
    {
      "inputs": [
        {
          "internalType": "address",
          "name": "account",
          "type": "address"
        }
      ],
      "name": "OwnableUnauthorizedAccount",
      "type": "error"
    },
    {
      "anonymous": false,
      "inputs": [
        {
          "indexed": true,
          "internalType": "address",
          "name": "owner",
          "type": "address"
        },
        {
          "indexed": true,
          "internalType": "address",
          "name": "approved",
          "type": "address"
        },
        {
          "indexed": true,
          "internalType": "uint256",
          "name": "tokenId",
          "type": "uint256"
        }
      ],
      "name": "Approval",
      "type": "event"
    },
    {
      "anonymous": false,
      "inputs": [
        {
          "indexed": true,
          "internalType": "address",
          "name": "owner",
          "type": "address"
        },
        {
          "indexed": true,
          "internalType": "address",
          "name": "operator",
          "type": "address"
        },
        {
          "indexed": false,
          "internalType": "bool",
          "name": "approved",
          "type": "bool"
        }
      ],
      "name": "ApprovalForAll",
      "type": "event"
    },
    {
      "anonymous": false,
      "inputs": [
        {
          "indexed": false,
          "internalType": "uint256",
          "name": "_fromTokenId",
          "type": "uint256"
        },
        {
          "indexed": false,
          "internalType": "uint256",
          "name": "_toTokenId",
          "type": "uint256"
        }
      ],
      "name": "BatchMetadataUpdate",
      "type": "event"
    },
    {
      "anonymous": false,
      "inputs": [
        {
          "indexed": false,
          "internalType": "uint256",
          "name": "_tokenId",
          "type": "uint256"
        }
      ],
      "name": "MetadataUpdate",
      "type": "event"
    },
    {
      "anonymous": false,
      "inputs": [
        {
          "indexed": true,
          "internalType": "address",
          "name": "previousOwner",
          "type": "address"
        },
        {
          "indexed": true,
          "internalType": "address",
          "name": "newOwner",
          "type": "address"
        }
      ],
      "name": "OwnershipTransferred",
      "type": "event"
    },
    {
      "anonymous": false,
      "inputs": [
        {
          "indexed": true,
          "internalType": "address",
          "name": "from",
          "type": "address"
        },
        {
          "indexed": true,
          "internalType": "address",
          "name": "to",
          "type": "address"
        },
        {
          "indexed": true,
          "internalType": "uint256",
          "name": "tokenId",
          "type": "uint256"
        }
      ],
      "name": "Transfer",
      "type": "event"
    },
    {
      "inputs": [
        {
          "internalType": "address",
          "name": "to",
          "type": "address"
        },
        {
          "internalType": "uint256",
          "name": "tokenId",
          "type": "uint256"
        }
      ],
      "name": "approve",
      "outputs": [],
      "stateMutability": "nonpayable",
      "type": "function"
    },
    {
      "inputs": [
        {
          "internalType": "address",
          "name": "owner",
          "type": "address"
        }
      ],
      "name": "balanceOf",
      "outputs": [
        {
          "internalType": "uint256",
          "name": "",
          "type": "uint256"
        }
      ],
      "stateMutability": "view",
      "type": "function"
    },
    {
      "inputs": [
        {
          "internalType": "uint256",
          "name": "tokenId",
          "type": "uint256"
        }
      ],
      "name": "getApproved",
      "outputs": [
        {
          "internalType": "address",
          "name": "",
          "type": "address"
        }
      ],
      "stateMutability": "view",
      "type": "function"
    },
    {
      "inputs": [
        {
          "internalType": "uint256",
          "name": "id",
          "type": "uint256"
        }
      ],
      "name": "getMetaData",
      "outputs": [
        {
          "internalType": "string",
          "name": "data",
          "type": "string"
        }
      ],
      "stateMutability": "view",
      "type": "function"
    },
    {
      "inputs": [
        {
          "internalType": "address",
          "name": "owner",
          "type": "address"
        },
        {
          "internalType": "address",
          "name": "operator",
          "type": "address"
        }
      ],
      "name": "isApprovedForAll",
      "outputs": [
        {
          "internalType": "bool",
          "name": "",
          "type": "bool"
        }
      ],
      "stateMutability": "view",
      "type": "function"
    },
    {
      "inputs": [
        {
          "internalType": "address",
          "name": "recipient",
          "type": "address"
        },
        {
          "internalType": "string",
          "name": "metadata",
          "type": "string"
        }
      ],
      "name": "mint",
      "outputs": [
        {
          "internalType": "uint256",
          "name": "",
          "type": "uint256"
        }
      ],
      "stateMutability": "nonpayable",
      "type": "function"
    },
    {
      "inputs": [],
      "name": "name",
      "outputs": [
        {
          "internalType": "string",
          "name": "",
          "type": "string"
        }
      ],
      "stateMutability": "view",
      "type": "function"
    },
    {
      "inputs": [],
      "name": "owner",
      "outputs": [
        {
          "internalType": "address",
          "name": "",
          "type": "address"
        }
      ],
      "stateMutability": "view",
      "type": "function"
    },
    {
      "inputs": [
        {
          "internalType": "uint256",
          "name": "tokenId",
          "type": "uint256"
        }
      ],
      "name": "ownerOf",
      "outputs": [
        {
          "internalType": "address",
          "name": "",
          "type": "address"
        }
      ],
      "stateMutability": "view",
      "type": "function"
    },
    {
      "inputs": [],
      "name": "renounceOwnership",
      "outputs": [],
      "stateMutability": "nonpayable",
      "type": "function"
    },
    {
      "inputs": [
        {
          "internalType": "address",
          "name": "from",
          "type": "address"
        },
        {
          "internalType": "address",
          "name": "to",
          "type": "address"
        },
        {
          "internalType": "uint256",
          "name": "tokenId",
          "type": "uint256"
        }
      ],
      "name": "safeTransferFrom",
      "outputs": [],
      "stateMutability": "nonpayable",
      "type": "function"
    },
    {
      "inputs": [
        {
          "internalType": "address",
          "name": "from",
          "type": "address"
        },
        {
          "internalType": "address",
          "name": "to",
          "type": "address"
        },
        {
          "internalType": "uint256",
          "name": "tokenId",
          "type": "uint256"
        },
        {
          "internalType": "bytes",
          "name": "data",
          "type": "bytes"
        }
      ],
      "name": "safeTransferFrom",
      "outputs": [],
      "stateMutability": "nonpayable",
      "type": "function"
    },
    {
      "inputs": [
        {
          "internalType": "address",
          "name": "operator",
          "type": "address"
        },
        {
          "internalType": "bool",
          "name": "approved",
          "type": "bool"
        }
      ],
      "name": "setApprovalForAll",
      "outputs": [],
      "stateMutability": "nonpayable",
      "type": "function"
    },
    {
      "inputs": [
        {
          "internalType": "bytes4",
          "name": "interfaceId",
          "type": "bytes4"
        }
      ],
      "name": "supportsInterface",
      "outputs": [
        {
          "internalType": "bool",
          "name": "",
          "type": "bool"
        }
      ],
      "stateMutability": "view",
      "type": "function"
    },
    {
      "inputs": [],
      "name": "symbol",
      "outputs": [
        {
          "internalType": "string",
          "name": "",
          "type": "string"
        }
      ],
      "stateMutability": "view",
      "type": "function"
    },
    {
      "inputs": [
        {
          "internalType": "uint256",
          "name": "tokenId",
          "type": "uint256"
        }
      ],
      "name": "tokenURI",
      "outputs": [
        {
          "internalType": "string",
          "name": "",
          "type": "string"
        }
      ],
      "stateMutability": "view",
      "type": "function"
    },
    {
      "inputs": [],
      "name": "totalSupply",
      "outputs": [
        {
          "internalType": "uint256",
          "name": "",
          "type": "uint256"
        }
      ],
      "stateMutability": "view",
      "type": "function"
    },
    {
      "inputs": [
        {
          "internalType": "address",
          "name": "from",
          "type": "address"
        },
        {
          "internalType": "address",
          "name": "to",
          "type": "address"
        },
        {
          "internalType": "uint256",
          "name": "tokenId",
          "type": "uint256"
        }
      ],
      "name": "transferFrom",
      "outputs": [],
      "stateMutability": "nonpayable",
      "type": "function"
    },
    {
      "inputs": [
        {
          "internalType": "address",
          "name": "newOwner",
          "type": "address"
        }
      ],
      "name": "transferOwnership",
      "outputs": [],
      "stateMutability": "nonpayable",
      "type": "function"
    }
  ],
  "bytecode": "0x60806040523480156200001157600080fd5b5060405162002d1238038062002d12833981810160405281019062000037919062000288565b806040518060400160405280600981526020017f4c656769744372656400000000000000000000000000000000000000000000008152506040518060400160405280600381526020017f4e465400000000000000000000000000000000000000000000000000000000008152508160009081620000b5919062000534565b508060019081620000c7919062000534565b505050600073ffffffffffffffffffffffffffffffffffffffff168173ffffffffffffffffffffffffffffffffffffffff16036200013f5760006040517f1e4fbdf70000000000000000000000000000000000000000000000000000000081526004016200013691906200062c565b60405180910390fd5b62000150816200015860201b60201c565b505062000649565b6000600760009054906101000a900473ffffffffffffffffffffffffffffffffffffffff16905081600760006101000a81548173ffffffffffffffffffffffffffffffffffffffff021916908373ffffffffffffffffffffffffffffffffffffffff1602179055508173ffffffffffffffffffffffffffffffffffffffff168173ffffffffffffffffffffffffffffffffffffffff167f8be0079c531659141344cd1fd0a4f28419497f9722a3daafe3b4186f6b6457e060405160405180910390a35050565b600080fd5b600073ffffffffffffffffffffffffffffffffffffffff82169050919050565b6000620002508262000223565b9050919050565b620002628162000243565b81146200026e57600080fd5b50565b600081519050620002828162000257565b92915050565b600060208284031215620002a157620002a06200021e565b5b6000620002b18482850162000271565b91505092915050565b600081519050919050565b7f4e487b7100000000000000000000000000000000000000000000000000000000600052604160045260246000fd5b7f4e487b7100000000000000000000000000000000000000000000000000000000600052602260045260246000fd5b600060028204905060018216806200033c57607f821691505b602082108103620003525762000351620002f4565b5b50919050565b60008190508160005260206000209050919050565b60006020601f8301049050919050565b600082821b905092915050565b600060088302620003bc7fffffffffffffffffffffffffffffffffffffffffffffffffffffffffffffffff826200037d565b620003c886836200037d565b95508019841693508086168417925050509392505050565b6000819050919050565b6000819050919050565b6000620004156200040f6200040984620003e0565b620003ea565b620003e0565b9050919050565b6000819050919050565b6200043183620003f4565b6200044962000440826200041c565b8484546200038a565b825550505050565b600090565b6200046062000451565b6200046d81848462000426565b505050565b5b8181101562000495576200048960008262000456565b60018101905062000473565b5050565b601f821115620004e457620004ae8162000358565b620004b9846200036d565b81016020851015620004c9578190505b620004e1620004d8856200036d565b83018262000472565b50505b505050565b600082821c905092915050565b60006200050960001984600802620004e9565b1980831691505092915050565b6000620005248383620004f6565b9150826002028217905092915050565b6200053f82620002ba565b67ffffffffffffffff8111156200055b576200055a620002c5565b5b62000567825462000323565b6200057482828562000499565b600060209050601f831160018114620005ac576000841562000597578287015190505b620005a3858262000516565b86555062000613565b601f198416620005bc8662000358565b60005b82811015620005e657848901518255600182019150602085019450602081019050620005bf565b8683101562000606578489015162000602601f891682620004f6565b8355505b6001600288020188555050505b505050505050565b620006268162000243565b82525050565b60006020820190506200064360008301846200061b565b92915050565b6126b980620006596000396000f3fe608060405234801561001057600080fd5b50600436106101215760003560e01c806370a08231116100ad578063b88d4fde11610071578063b88d4fde14610308578063c87b56dd14610324578063d0def52114610354578063e985e9c514610384578063f2fde38b146103b457610121565b806370a0823114610276578063715018a6146102a65780638da5cb5b146102b057806395d89b41146102ce578063a22cb465146102ec57610121565b806318160ddd116100f457806318160ddd146101c057806323b872dd146101de57806342842e0e146101fa57806361eba552146102165780636352211e1461024657610121565b806301ffc9a71461012657806306fdde0314610156578063081812fc14610174578063095ea7b3146101a4575b600080fd5b610140600480360381019061013b9190611b11565b6103d0565b60405161014d9190611b59565b60405180910390f35b61015e610431565b60405161016b9190611c04565b60405180910390f35b61018e60048036038101906101899190611c5c565b6104c3565b60405161019b9190611cca565b60405180910390f35b6101be60048036038101906101b99190611d11565b6104df565b005b6101c86104f5565b6040516101d59190611d60565b60405180910390f35b6101f860048036038101906101f39190611d7b565b6104ff565b005b610214600480360381019061020f9190611d7b565b610601565b005b610230600480360381019061022b9190611c5c565b610621565b60405161023d9190611c04565b60405180910390f35b610260600480360381019061025b9190611c5c565b610633565b60405161026d9190611cca565b60405180910390f35b610290600480360381019061028b9190611dce565b610645565b60405161029d9190611d60565b60405180910390f35b6102ae6106ff565b005b6102b8610713565b6040516102c59190611cca565b60405180910390f35b6102d661073d565b6040516102e39190611c04565b60405180910390f35b61030660048036038101906103019190611e27565b6107cf565b005b610322600480360381019061031d9190611f9c565b6107e5565b005b61033e60048036038101906103399190611c5c565b61080a565b60405161034b9190611c04565b60405180910390f35b61036e600480360381019061036991906120c0565b61091d565b60405161037b9190611d60565b60405180910390f35b61039e6004803603810190610399919061211c565b61095c565b6040516103ab9190611b59565b60405180910390f35b6103ce60048036038101906103c99190611dce565b6109f0565b005b6000634906490660e01b7bffffffffffffffffffffffffffffffffffffffffffffffffffffffff1916827bffffffffffffffffffffffffffffffffffffffffffffffffffffffff1916148061042a575061042982610a76565b5b9050919050565b6060600080546104409061218b565b80601f016020809104026020016040519081016040528092919081815260200182805461046c9061218b565b80156104b95780601f1061048e576101008083540402835291602001916104b9565b820191906000526020600020905b81548152906001019060200180831161049c57829003601f168201915b5050505050905090565b60006104ce82610b58565b506104d882610be0565b9050919050565b6104f182826104ec610c1d565b610c25565b5050565b6000600854905090565b600073ffffffffffffffffffffffffffffffffffffffff168273ffffffffffffffffffffffffffffffffffffffff16036105715760006040517f64a0ae920000000000000000000000000000000000000000000000000000000081526004016105689190611cca565b60405180910390fd5b60006105858383610580610c1d565b610c37565b90508373ffffffffffffffffffffffffffffffffffffffff168173ffffffffffffffffffffffffffffffffffffffff16146105fb578382826040517f64283d7b0000000000000000000000000000000000000000000000000000000081526004016105f2939291906121bc565b60405180910390fd5b50505050565b61061c838383604051806020016040528060008152506107e5565b505050565b606061062c8261080a565b9050919050565b600061063e82610b58565b9050919050565b60008073ffffffffffffffffffffffffffffffffffffffff168273ffffffffffffffffffffffffffffffffffffffff16036106b85760006040517f89c62b640000000000000000000000000000000000000000000000000000000081526004016106af9190611cca565b60405180910390fd5b600360008373ffffffffffffffffffffffffffffffffffffffff1673ffffffffffffffffffffffffffffffffffffffff168152602001908152602001600020549050919050565b610707610e51565b6107116000610ed8565b565b6000600760009054906101000a900473ffffffffffffffffffffffffffffffffffffffff16905090565b60606001805461074c9061218b565b80601f01602080910402602001604051908101604052809291908181526020018280546107789061218b565b80156107c55780601f1061079a576101008083540402835291602001916107c5565b820191906000526020600020905b8154815290600101906020018083116107a857829003601f168201915b5050505050905090565b6107e16107da610c1d565b8383610f9e565b5050565b6107f08484846104ff565b6108046107fb610c1d565b8585858561110d565b50505050565b606061081582610b58565b5060006006600084815260200190815260200160002080546108369061218b565b80601f01602080910402602001604051908101604052809291908181526020018280546108629061218b565b80156108af5780601f10610884576101008083540402835291602001916108af565b820191906000526020600020905b81548152906001019060200180831161089257829003601f168201915b5050505050905060006108c06112be565b905060008151036108d5578192505050610918565b60008251111561090a5780826040516020016108f292919061222f565b60405160208183030381529060405292505050610918565b610913846112d5565b925050505b919050565b60006008600081548092919061093290612282565b919050555060006008549050610948848261133e565b6109528184611437565b8091505092915050565b6000600560008473ffffffffffffffffffffffffffffffffffffffff1673ffffffffffffffffffffffffffffffffffffffff16815260200190815260200160002060008373ffffffffffffffffffffffffffffffffffffffff1673ffffffffffffffffffffffffffffffffffffffff16815260200190815260200160002060009054906101000a900460ff16905092915050565b6109f8610e51565b600073ffffffffffffffffffffffffffffffffffffffff168173ffffffffffffffffffffffffffffffffffffffff1603610a6a5760006040517f1e4fbdf7000000000000000000000000000000000000000000000000000000008152600401610a619190611cca565b60405180910390fd5b610a7381610ed8565b50565b60007f80ac58cd000000000000000000000000000000000000000000000000000000007bffffffffffffffffffffffffffffffffffffffffffffffffffffffff1916827bffffffffffffffffffffffffffffffffffffffffffffffffffffffff19161480610b4157507f5b5e139f000000000000000000000000000000000000000000000000000000007bffffffffffffffffffffffffffffffffffffffffffffffffffffffff1916827bffffffffffffffffffffffffffffffffffffffffffffffffffffffff1916145b80610b515750610b5082611493565b5b9050919050565b600080610b64836114fd565b9050600073ffffffffffffffffffffffffffffffffffffffff168173ffffffffffffffffffffffffffffffffffffffff1603610bd757826040517f7e273289000000000000000000000000000000000000000000000000000000008152600401610bce9190611d60565b60405180910390fd5b80915050919050565b60006004600083815260200190815260200160002060009054906101000a900473ffffffffffffffffffffffffffffffffffffffff169050919050565b600033905090565b610c32838383600161153a565b505050565b600080610c43846114fd565b9050600073ffffffffffffffffffffffffffffffffffffffff168373ffffffffffffffffffffffffffffffffffffffff1614610c8557610c848184866116ff565b5b600073ffffffffffffffffffffffffffffffffffffffff168173ffffffffffffffffffffffffffffffffffffffff1614610d1657610cc760008560008061153a565b6001600360008373ffffffffffffffffffffffffffffffffffffffff1673ffffffffffffffffffffffffffffffffffffffff168152602001908152602001600020600082825403925050819055505b600073ffffffffffffffffffffffffffffffffffffffff168573ffffffffffffffffffffffffffffffffffffffff1614610d99576001600360008773ffffffffffffffffffffffffffffffffffffffff1673ffffffffffffffffffffffffffffffffffffffff168152602001908152602001600020600082825401925050819055505b846002600086815260200190815260200160002060006101000a81548173ffffffffffffffffffffffffffffffffffffffff021916908373ffffffffffffffffffffffffffffffffffffffff160217905550838573ffffffffffffffffffffffffffffffffffffffff168273ffffffffffffffffffffffffffffffffffffffff167fddf252ad1be2c89b69c2b068fc378daa952ba7f163c4a11628f55a4df523b3ef60405160405180910390a4809150509392505050565b610e59610c1d565b73ffffffffffffffffffffffffffffffffffffffff16610e77610713565b73ffffffffffffffffffffffffffffffffffffffff1614610ed657610e9a610c1d565b6040517f118cdaa7000000000000000000000000000000000000000000000000000000008152600401610ecd9190611cca565b60405180910390fd5b565b6000600760009054906101000a900473ffffffffffffffffffffffffffffffffffffffff16905081600760006101000a81548173ffffffffffffffffffffffffffffffffffffffff021916908373ffffffffffffffffffffffffffffffffffffffff1602179055508173ffffffffffffffffffffffffffffffffffffffff168173ffffffffffffffffffffffffffffffffffffffff167f8be0079c531659141344cd1fd0a4f28419497f9722a3daafe3b4186f6b6457e060405160405180910390a35050565b600073ffffffffffffffffffffffffffffffffffffffff168273ffffffffffffffffffffffffffffffffffffffff160361100f57816040517f5b08ba180000000000000000000000000000000000000000000000000000000081526004016110069190611cca565b60405180910390fd5b80600560008573ffffffffffffffffffffffffffffffffffffffff1673ffffffffffffffffffffffffffffffffffffffff16815260200190815260200160002060008473ffffffffffffffffffffffffffffffffffffffff1673ffffffffffffffffffffffffffffffffffffffff16815260200190815260200160002060006101000a81548160ff0219169083151502179055508173ffffffffffffffffffffffffffffffffffffffff168373ffffffffffffffffffffffffffffffffffffffff167f17307eab39ab6107e8899845ad3d59bd9653f200f220920489ca2b5937696c31836040516111009190611b59565b60405180910390a3505050565b60008373ffffffffffffffffffffffffffffffffffffffff163b11156112b7578273ffffffffffffffffffffffffffffffffffffffff1663150b7a02868685856040518563ffffffff1660e01b815260040161116c949392919061231f565b6020604051808303816000875af19250505080156111a857506040513d601f19601f820116820180604052508101906111a59190612380565b60015b61122c573d80600081146111d8576040519150601f19603f3d011682016040523d82523d6000602084013e6111dd565b606091505b50600081510361122457836040517f64a0ae9200000000000000000000000000000000000000000000000000000000815260040161121b9190611cca565b60405180910390fd5b805160208201fd5b63150b7a0260e01b7bffffffffffffffffffffffffffffffffffffffffffffffffffffffff1916817bffffffffffffffffffffffffffffffffffffffffffffffffffffffff1916146112b557836040517f64a0ae920000000000000000000000000000000000000000000000000000000081526004016112ac9190611cca565b60405180910390fd5b505b5050505050565b606060405180602001604052806000815250905090565b60606112e082610b58565b5060006112eb6112be565b9050600081511161130b5760405180602001604052806000815250611336565b80611315846117c3565b60405160200161132692919061222f565b6040516020818303038152906040525b915050919050565b600073ffffffffffffffffffffffffffffffffffffffff168273ffffffffffffffffffffffffffffffffffffffff16036113b05760006040517f64a0ae920000000000000000000000000000000000000000000000000000000081526004016113a79190611cca565b60405180910390fd5b60006113be83836000610c37565b9050600073ffffffffffffffffffffffffffffffffffffffff168173ffffffffffffffffffffffffffffffffffffffff16146114325760006040517f73c6ac6e0000000000000000000000000000000000000000000000000000000081526004016114299190611cca565b60405180910390fd5b505050565b806006600084815260200190815260200160002090816114579190612559565b507ff8e1a15aba9398e019f0b49df1a4fde98ee17ae345cb5f6b5e2c27f5033e8ce7826040516114879190611d60565b60405180910390a15050565b60007f01ffc9a7000000000000000000000000000000000000000000000000000000007bffffffffffffffffffffffffffffffffffffffffffffffffffffffff1916827bffffffffffffffffffffffffffffffffffffffffffffffffffffffff1916149050919050565b60006002600083815260200190815260200160002060009054906101000a900473ffffffffffffffffffffffffffffffffffffffff169050919050565b80806115735750600073ffffffffffffffffffffffffffffffffffffffff168273ffffffffffffffffffffffffffffffffffffffff1614155b156116a757600061158384610b58565b9050600073ffffffffffffffffffffffffffffffffffffffff168373ffffffffffffffffffffffffffffffffffffffff16141580156115ee57508273ffffffffffffffffffffffffffffffffffffffff168173ffffffffffffffffffffffffffffffffffffffff1614155b801561160157506115ff818461095c565b155b1561164357826040517fa9fbf51f00000000000000000000000000000000000000000000000000000000815260040161163a9190611cca565b60405180910390fd5b81156116a557838573ffffffffffffffffffffffffffffffffffffffff168273ffffffffffffffffffffffffffffffffffffffff167f8c5be1e5ebec7d5bd14f71427d1e84f3dd0314c0f7b2291e5b200ac8c7c3b92560405160405180910390a45b505b836004600085815260200190815260200160002060006101000a81548173ffffffffffffffffffffffffffffffffffffffff021916908373ffffffffffffffffffffffffffffffffffffffff16021790555050505050565b61170a838383611891565b6117be57600073ffffffffffffffffffffffffffffffffffffffff168373ffffffffffffffffffffffffffffffffffffffff160361177f57806040517f7e2732890000000000000000000000000000000000000000000000000000000081526004016117769190611d60565b60405180910390fd5b81816040517f177e802f0000000000000000000000000000000000000000000000000000000081526004016117b592919061262b565b60405180910390fd5b505050565b6060600060016117d284611952565b01905060008167ffffffffffffffff8111156117f1576117f0611e71565b5b6040519080825280601f01601f1916602001820160405280156118235781602001600182028036833780820191505090505b509050600082602083010190505b600115611886578080600190039150507f3031323334353637383961626364656600000000000000000000000000000000600a86061a8153600a858161187a57611879612654565b5b04945060008503611831575b819350505050919050565b60008073ffffffffffffffffffffffffffffffffffffffff168373ffffffffffffffffffffffffffffffffffffffff161415801561194957508273ffffffffffffffffffffffffffffffffffffffff168473ffffffffffffffffffffffffffffffffffffffff16148061190a5750611909848461095c565b5b8061194857508273ffffffffffffffffffffffffffffffffffffffff1661193083610be0565b73ffffffffffffffffffffffffffffffffffffffff16145b5b90509392505050565b600080600090507a184f03e93ff9f4daa797ed6e38ed64bf6a1f01000000000000000083106119b0577a184f03e93ff9f4daa797ed6e38ed64bf6a1f01000000000000000083816119a6576119a5612654565b5b0492506040810190505b6d04ee2d6d415b85acef810000000083106119ed576d04ee2d6d415b85acef810000000083816119e3576119e2612654565b5b0492506020810190505b662386f26fc100008310611a1c57662386f26fc100008381611a1257611a11612654565b5b0492506010810190505b6305f5e1008310611a45576305f5e1008381611a3b57611a3a612654565b5b0492506008810190505b6127108310611a6a576127108381611a6057611a5f612654565b5b0492506004810190505b60648310611a8d5760648381611a8357611a82612654565b5b0492506002810190505b600a8310611a9c576001810190505b80915050919050565b6000604051905090565b600080fd5b600080fd5b60007fffffffff0000000000000000000000000000000000000000000000000000000082169050919050565b611aee81611ab9565b8114611af957600080fd5b50565b600081359050611b0b81611ae5565b92915050565b600060208284031215611b2757611b26611aaf565b5b6000611b3584828501611afc565b91505092915050565b60008115159050919050565b611b5381611b3e565b82525050565b6000602082019050611b6e6000830184611b4a565b92915050565b600081519050919050565b600082825260208201905092915050565b60005b83811015611bae578082015181840152602081019050611b93565b60008484015250505050565b6000601f19601f8301169050919050565b6000611bd682611b74565b611be08185611b7f565b9350611bf0818560208601611b90565b611bf981611bba565b840191505092915050565b60006020820190508181036000830152611c1e8184611bcb565b905092915050565b6000819050919050565b611c3981611c26565b8114611c4457600080fd5b50565b600081359050611c5681611c30565b92915050565b600060208284031215611c7257611c71611aaf565b5b6000611c8084828501611c47565b91505092915050565b600073ffffffffffffffffffffffffffffffffffffffff82169050919050565b6000611cb482611c89565b9050919050565b611cc481611ca9565b82525050565b6000602082019050611cdf6000830184611cbb565b92915050565b611cee81611ca9565b8114611cf957600080fd5b50565b600081359050611d0b81611ce5565b92915050565b60008060408385031215611d2857611d27611aaf565b5b6000611d3685828601611cfc565b9250506020611d4785828601611c47565b9150509250929050565b611d5a81611c26565b82525050565b6000602082019050611d756000830184611d51565b92915050565b600080600060608486031215611d9457611d93611aaf565b5b6000611da286828701611cfc565b9350506020611db386828701611cfc565b9250506040611dc486828701611c47565b9150509250925092565b600060208284031215611de457611de3611aaf565b5b6000611df284828501611cfc565b91505092915050565b611e0481611b3e565b8114611e0f57600080fd5b50565b600081359050611e2181611dfb565b92915050565b60008060408385031215611e3e57611e3d611aaf565b5b6000611e4c85828601611cfc565b9250506020611e5d85828601611e12565b9150509250929050565b600080fd5b600080fd5b7f4e487b7100000000000000000000000000000000000000000000000000000000600052604160045260246000fd5b611ea982611bba565b810181811067ffffffffffffffff82111715611ec857611ec7611e71565b5b80604052505050565b6000611edb611aa5565b9050611ee78282611ea0565b919050565b600067ffffffffffffffff821115611f0757611f06611e71565b5b611f1082611bba565b9050602081019050919050565b82818337600083830152505050565b6000611f3f611f3a84611eec565b611ed1565b905082815260208101848484011115611f5b57611f5a611e6c565b5b611f66848285611f1d565b509392505050565b600082601f830112611f8357611f82611e67565b5b8135611f93848260208601611f2c565b91505092915050565b60008060008060808587031215611fb657611fb5611aaf565b5b6000611fc487828801611cfc565b9450506020611fd587828801611cfc565b9350506040611fe687828801611c47565b925050606085013567ffffffffffffffff81111561200757612006611ab4565b5b61201387828801611f6e565b91505092959194509250565b600067ffffffffffffffff82111561203a57612039611e71565b5b61204382611bba565b9050602081019050919050565b600061206361205e8461201f565b611ed1565b90508281526020810184848401111561207f5761207e611e6c565b5b61208a848285611f1d565b509392505050565b600082601f8301126120a7576120a6611e67565b5b81356120b7848260208601612050565b91505092915050565b600080604083850312156120d7576120d6611aaf565b5b60006120e585828601611cfc565b925050602083013567ffffffffffffffff81111561210657612105611ab4565b5b61211285828601612092565b9150509250929050565b6000806040838503121561213357612132611aaf565b5b600061214185828601611cfc565b925050602061215285828601611cfc565b9150509250929050565b7f4e487b7100000000000000000000000000000000000000000000000000000000600052602260045260246000fd5b600060028204905060018216806121a357607f821691505b6020821081036121b6576121b561215c565b5b50919050565b60006060820190506121d16000830186611cbb565b6121de6020830185611d51565b6121eb6040830184611cbb565b949350505050565b600081905092915050565b600061220982611b74565b61221381856121f3565b9350612223818560208601611b90565b80840191505092915050565b600061223b82856121fe565b915061224782846121fe565b91508190509392505050565b7f4e487b7100000000000000000000000000000000000000000000000000000000600052601160045260246000fd5b600061228d82611c26565b91507fffffffffffffffffffffffffffffffffffffffffffffffffffffffffffffffff82036122bf576122be612253565b5b600182019050919050565b600081519050919050565b600082825260208201905092915050565b60006122f1826122ca565b6122fb81856122d5565b935061230b818560208601611b90565b61231481611bba565b840191505092915050565b60006080820190506123346000830187611cbb565b6123416020830186611cbb565b61234e6040830185611d51565b818103606083015261236081846122e6565b905095945050505050565b60008151905061237a81611ae5565b92915050565b60006020828403121561239657612395611aaf565b5b60006123a48482850161236b565b91505092915050565b60008190508160005260206000209050919050565b60006020601f8301049050919050565b600082821b905092915050565b60006008830261240f7fffffffffffffffffffffffffffffffffffffffffffffffffffffffffffffffff826123d2565b61241986836123d2565b95508019841693508086168417925050509392505050565b6000819050919050565b600061245661245161244c84611c26565b612431565b611c26565b9050919050565b6000819050919050565b6124708361243b565b61248461247c8261245d565b8484546123df565b825550505050565b600090565b61249961248c565b6124a4818484612467565b505050565b5b818110156124c8576124bd600082612491565b6001810190506124aa565b5050565b601f82111561250d576124de816123ad565b6124e7846123c2565b810160208510156124f6578190505b61250a612502856123c2565b8301826124a9565b50505b505050565b600082821c905092915050565b600061253060001984600802612512565b1980831691505092915050565b6000612549838361251f565b9150826002028217905092915050565b61256282611b74565b67ffffffffffffffff81111561257b5761257a611e71565b5b612585825461218b565b6125908282856124cc565b600060209050601f8311600181146125c357600084156125b1578287015190505b6125bb858261253d565b865550612623565b601f1984166125d1866123ad565b60005b828110156125f9578489015182556001820191506020850194506020810190506125d4565b868310156126165784890151612612601f89168261251f565b8355505b6001600288020188555050505b505050505050565b60006040820190506126406000830185611cbb565b61264d6020830184611d51565b9392505050565b7f4e487b7100000000000000000000000000000000000000000000000000000000600052601260045260246000fdfea2646970667358221220c509d61779a0fbb55b536ec9c14056b9ae948e9ac9604ea9bec894c413eb7bd464736f6c63430008140033",
  "linkReferences": {},
  "deployedLinkReferences": {}
}